:100000000C942A000C943C000C943C000C943C0092
:100010000C943C000C943C000C943C000C943C0070
:100020000C943C000C943C000C943C000C943C0060
:100030000C943C000C943C000C943C000C943C0050
:100040000C943C000C943C000C943C000C943C0040
:100050000C943C0011241FBECFE5D4E0DEBFCDBF21
:1000600010E0A0E6B0E001C01D92A236B107E1F7B2
:100070000E943E000C9451000C940000A09A8FEF57
:1000800081BB929A93988FB583698FBD85E08EBDB1
:1000900080E293E09BBD8ABD8CEB92E099BD88BD68
:0600A000FFCFF894FFCF32
:00000001FF
