:100000000C94A7000C94C4000C94C4000C94C4007D
:100010000C94C4000C94C4000C9479010C948401D9
:100020000C946E010C94C4000C94C4000C94C60093
:100030000C94EF000C94C4000C94C4000C94C40005
:100040000C94C4000C94C4000C94C4000C94C40020
:100050000C94C40000407A10F35A00A0724E1809A4
:100060000010A5D4E80000E87648170000E40B541F
:10007000020000CA9A3B000000E1F50500008096EE
:100080009800000040420F000000A0860100000020
:10009000102700000000E8030000000064000000DA
:1000A00000000A00000000000100000000002C76A3
:1000B000D888DC674F0823DFC1DFAE59E1B1B796BE
:1000C000E5E3E453C63AE651997696E8E6C284261B
:1000D000EB898C9B62ED407C6FFCEFBC9C9F40F2F7
:1000E000BAA56FA5F490055A2AF75C936B6CF96773
:1000F0006DC11BFCE0E40D47FEF520E6B500D0ED38
:10010000902E0300943577050080841E080000209F
:100110004E0A000000C80C333333330F986E12833D
:100120001141EF8D2114893BE65516CFFEE6DB1811
:10013000D1844B381BF77C1D901DA4BBE4242032D6
:1001400084725E228100C9F124ECA1E53D271124CF
:100150001FBECFE5D4E0DEBFCDBF10E0A0E6B0E02B
:10016000E4E6FCE002C005900D92A436B107D9F791
:1001700011E0A4E6B0E001C01D92AF37B107E1F78E
:100180000E94A4010C9430060C9400001F920F9260
:100190000FB60F9211242F938F939F93EF93FF939A
:1001A0009BB12CB1E0917C01EF5F80917D01E8175C
:1001B00011F482E008C0892F8871E0937C01F0E09F
:1001C000E658FF4F208380937E01FF91EF919F912E
:1001D0008F912F910F900FBE0F901F9018951F9227
:1001E0000F920FB60F9211248F939F93EF93FF936B
:1001F00090917A0180917B01981761F0E0917B01E9
:10020000EF5FEF70E0937B01F0E0E659FF4F8081F4
:100210008CB907C0559881E090E090936500809379
:100220006400FF91EF919F918F910F900FBE0F90FF
:100230001F9018959C0110927A0110927B011092E8
:100240007C0110927D0197FF03C082E08BB93F775C
:1002500030BD29B988E98AB986E880BD08959091B2
:100260007C0180917D01981719F420E031E011C0E4
:10027000E0917D01EF5FE0937D01F0E0E658FF4FF4
:10028000308120917E01922F80E0AC01430F511DFF
:100290009A01C9010895282F90917A019F5F9F705C
:1002A00080917B019817E1F3E92FF0E0E659FF4FC9
:1002B000208390937A011092650010926400559A01
:1002C0000895CF93DF93EC0103C021960E944B0168
:1002D00088818823D1F7DF91CF9108951F920F92E3
:1002E0000FB60F921124A89A0F900FBE0F901F9077
:1002F00018951F920F920FB60F921124A8980F9085
:100300000FBE0F901F9018951F920F920FB60F926D
:1003100011240F900FBE0F901F9018953E9A3F9A90
:1003200086B1876886B9089527B1207F27B927B19C
:1003300087709070282B27B9369A349BFECF349A59
:1003400024B135B1C90108956F927F928F929F9227
:10035000AF92BF92CF92DF92EF92FF920F931F93D3
:10036000DF93CF9300D000D00F92CDB7DEB70E94BD
:100370008E0187E690E00E941A017894A09AD298A4
:10038000A89880E690E00E94610188EB9BE020E95C
:1003900031E0F9013197F1F70197D9F782E88FBD84
:1003A0008AE18EBD89B7846189BF5E010894A11C72
:1003B000B11C90E9692E91E0792E80E4882E8CE9B9
:1003C000982E82E090E00E949401A0E0B0E0BC0191
:1003D000CD010E94AD026B017C0120E030E044E3DE
:1003E0005EE30E943B0344E050E024E030E08501FE
:1003F0000E949E03C5010E9461018DE00E944B0195
:1004000088EB9BE0F3013197F1F70197D9F797BC9F
:1004100086BCC701B60120E030E04AE750E40E9404
:100420003B0320E030E04AE754E40E941D020E94B2
:1004300081027BBD6ABDC5CF5058BB27AA270ED00D
:10044000E0C0D1D030F0D6D020F031F49F3F11F48D
:100450001EF4C6C00EF4E095E7FBBCC0E92FE2D065
:1004600080F3BA17620773078407950718F071F4D1
:100470009EF5FAC00EF4E0950B2EBA2FA02D0B01BD
:10048000B90190010C01CA01A0011124FF27591BD9
:1004900099F0593F50F4503E68F11A16F040A22FDF
:1004A000232F342F4427585FF3CF46953795279550
:1004B000A795F0405395C9F77EF41F16BA0B620B4F
:1004C000730B840BBAF09150A1F0FF0FBB1F661F96
:1004D000771F881FC2F70EC0BA0F621F731F841FD9
:1004E00048F4879577956795B795F7959E3F08F0FF
:1004F000B3CF9395880F08F09927EE0F97958795BE
:10050000089598D088F09F5790F0B92F9927B75148
:10051000A0F0D1F0660F771F881F991F1AF0BA95C7
:10052000C9F712C0B13081F09FD0B1E008959CC0EE
:10053000672F782F8827B85F39F0B93FCCF38695BD
:1005400077956795B395D9F73EF49095809570951A
:1005500061957F4F8F4F9F4F0895E89409C097FB97
:100560003EF490958095709561957F4F8F4F9F4F8A
:100570009923A9F0F92F96E9BB279395F6958795CE
:1005800077956795B795F111F8CFFAF4BB0F11F491
:1005900060FF1BC06F5F7F4F8F4F9F4F16C0882338
:1005A00011F096E911C0772321F09EE8872F762F6E
:1005B00005C0662371F096E8862F70E060E02AF0AF
:1005C0009A95660F771F881FDAF7880F969587959B
:1005D00097F9089597F99F6780E870E060E00895C3
:1005E0009FEF80EC089500240A941616170618064B
:1005F0000906089500240A94121613061406050627
:100600000895092E0394000C11F4882352F0BB0FB7
:1006100040F4BF2B11F460FF04C06F5F7F4F8F4F1A
:100620009F4F089557FD9058440F551F59F05F3F55
:1006300071F04795880F97FB991F61F09F3F79F004
:1006400087950895121613061406551FF2CF469586
:10065000F1DF08C0161617061806991FF1CF869508
:100660007105610508940895E894BB2766277727EC
:10067000CB0197F908950BD0C4CFB5DF28F0BADFCE
:1006800018F0952309F0A6CFABCF1124EECFCADF27
:10069000A0F3959FD1F3950F50E0551F629FF00195
:1006A000729FBB27F00DB11D639FAA27F00DB11DEE
:1006B000AA1F649F6627B00DA11D661F829F222777
:1006C000B00DA11D621F739FB00DA11D621F839FFE
:1006D000A00D611D221F749F3327A00D611D231FD4
:1006E000849F600D211D822F762F6A2F11249F5722
:1006F00050408AF0E1F088234AF0EE0FFF1FBB1F45
:10070000661F771F881F91505040A9F79E3F5105E3
:1007100070F060CFAACF5F3FECF3983EDCF3869594
:1007200077956795B795F795E7959F5FC1F7FE2B8E
:10073000880F911D9695879597F90895EF92FF92EE
:100740000F931F93F22FF02E47FD02C0E4E001C08B
:10075000E4E1242F332727FD309537FF03C0309580
:1007600021953F4F4F2D512F0F2FEE2E0E94BF038B
:100770008F2D912F1F910F91FF90EF900895A9E079
:10078000B0E0E5ECF3E00C94FD056A01122FA02E19
:10079000BE2C2BE3201718F42CE3922E02C0902ECF
:1007A0009394AE014F5F5F4F27E0092D0E94210512
:1007B000BC018981E82EFF24C701897090700197E0
:1007C00011F4ADE209C0B1FE02C0ABE205C0B0FC5D
:1007D00002C0A0E001C0A0E2E3FE3BC0AA2311F4E6
:1007E00023E001C024E0211710F020E002C0121B1A
:1007F000212FEB2CB4FE02C0322F0AC0F601322F9B
:1008000080E202C0819331503323E1F7C20ED11C44
:10081000AA2319F0F601A1936F01F6013196E2FEC9
:1008200005C09EE4D6019C9381E404C09EE6D601F7
:100830009C9381E611968C9391833296DF01832FEE
:1008400090E202C09D9381508823E1F7E30FF11DF0
:1008500040C0E2FE42C0AA2311F423E001C024E01C
:10086000211710F020E002C0121B212FEB2CB4FE48
:1008700002C0922F0AC0F601922F80E202C081933B
:1008800091509923E1F7C20ED11CAA2319F0F60169
:10089000A1936F01F6013196E2FE08C089E4D6010A
:1008A0008C938EE411968C9386E407C089E6D6017A
:1008B0008C938EE611968C9386E681833296DF01C7
:1008C000892F20E202C02D9381508823E1F7E90FA0
:1008D000F11D10822EEF3FEFAFC0161617061CF069
:1008E00041E050E003C0AB014F5F5F4FAA2019F415
:1008F00080E090E003C08A2D90E0019620E030E097
:10090000AA2311F021E030E0240F351F280F391FF2
:10091000812F90E02817390714F020E002C0121B45
:10092000212F4B2D50E0CA0180719070B4FC0DC096
:10093000B3FC0BC0F601322F40E202C041933150AC
:100940003323E1F7C20ED11C01C0322FAA2319F0C4
:10095000F601A1936F01892B11F0132F0AC0F60144
:10096000132F80E302C0819311501123E1F7C30ECE
:10097000D11C092D060FBA8090E1892E912C8E2072
:100980009F20E4FE04C0F1E3BF1609F401501016E5
:1009900014F001E003C0093008F008E09B0177FF84
:1009A00002C020E030E0CB010196821B930BFE01D8
:1009B0003196E80FF91F8EE2F82E3B01601A71089C
:1009C0008A2D90E044275527481B590B8FEF2F3F66
:1009D000380719F4D601FD926D01621773072CF0E8
:1009E0006216730614F4808101C080E32150304008
:1009F00031962417350724F0D6018D936D01E6CF8B
:100A00002617370749F4B5E3BB1528F0BB1621F4C8
:100A10008114910409F481E3F6018193D601812FB9
:100A200090E202C09C93815011968823D9F7E10F80
:100A3000F11D108220E030E0C9012996EEE00C940F
:100A40001906283008F027E03327DA01990F311D05
:100A500087FD916000966105710539F432602E5F63
:100A60003D9330E32A95E1F708959F3F30F08038B9
:100A70007105610509F03C5F3C5F3D93913008F0E2
:100A80008068911DDF93CF931F930F93FF92EF9296
:100A9000192F987F9695E92F96959695E90FFF2740
:100AA000E255FF4F99273327EE24FF24A701E701E2
:100AB00005900894079428F4360FE71EF81E491F86
:100AC000511D660F771F881F991F0694A1F7059087
:100AD000079428F4E70EF81E491F561FC11D770F13
:100AE000881F991F661F0694A1F70590079428F4A4
:100AF000F80E491F561FC71FD11D880F991F661F6B
:100B0000771F0694A1F70590079420F4490F561F0C
:100B1000C71FD81F990F661F771F881F0694A9F754
:100B200084911095177041F0D695C79557954795C4
:100B3000F794E7941A95C1F7E4E5F0E0689415900E
:100B4000159135916591959105907FE27395E11826
:100B5000F10A430B560BC90BD009C0F7E10CF11E8B
:100B6000431F561FC91FD01D7EF4703311F48A95A0
:100B7000E6CFE894015030F0080F0AF4002702177E
:100B800008F4202F2395022F7A3328F079E37D9300
:100B90002A95E9F710C07D932A9589F606949795D2
:100BA0006795379517951794E118F10A430B560B83
:100BB000C90BD00998F023957E9173957A3308F08C
:100BC00070E37C932013B8F77E9170617D9330F0D1
:100BD000839571E37D9370E32A95E1F71124EF90FB
:100BE000FF900F911F91CF91DF91992787FD9095ED
:100BF00008952F923F924F925F926F927F928F92C1
:100C00009F92AF92BF92CF92DF92EF92FF920F939B
:100C10001F93CF93DF93CDB7DEB7CA1BDB0B0FB6A5
:100C2000F894DEBF0FBECDBF09942A883988488862
:100C30005F846E847D848C849B84AA84B984C884F8
:100C4000DF80EE80FD800C811B81AA81B981CE0FEF
:100C5000D11D0FB6F894DEBF0FBECDBFED010895D4
:040C6000F894FFCF36
:040C640068690000BB
:00000001FF
