:100000000C942A000C943C000C943C000C943C0092
:100010000C943C000C943C000C943C000C943C0070
:100020000C9459000C943C000C943C000C943C0043
:100030000C943C000C943C000C943C000C943C0050
:100040000C943C000C943C000C943C000C943C0040
:100050000C943C0011241FBECFE5D4E0DEBFCDBF21
:1000600010E0A0E6B0E001C01D92A236B107E1F7B2
:100070000E943E000C9470000C940000A09A80E84E
:100080008FBD81E08EBD89B7846089BF789421E0FF
:1000900080916000909161008E519F4F855C9140EE
:1000A000B8F385B3822785BB10926100109260007F
:1000B000EFCF1F920F920FB60F9211248F939F9341
:1000C000809160009091610001969093610080930F
:1000D00060009F918F910F900FBE0F901F90189509
:0400E000F894FFCFC2
:00000001FF
