:100000000C942A000C9447000C9447000C94470071
:100010000C9447000C9447000C9447000C94470044
:100020000C9447000C9447000C9447000C94490032
:100030000C9472000C9447000C9447000C944700F9
:100040000C9447000C9447000C9447000C94470014
:100050000C94470011241FBECFE5D4E0DEBFCDBF16
:1000600010E0A0E6B0E0E2EBF3E002C005900D92F4
:10007000A436B107D9F711E0A4E6B0E001C01D92A3
:10008000AD37B107E1F70E942E010C94D7010C9413
:1000900000001F920F920FB60F9211242F938F938F
:1000A0009F93EF93FF939BB12CB1E0917A01EF5FA7
:1000B00080917B01E81711F482E008C0892F8871D4
:1000C000E0937A01F0E0E858FF4F208380937C01B1
:1000D000FF91EF919F918F912F910F900FBE0F90F5
:1000E0001F9018951F920F920FB60F9211248F93A5
:1000F0009F93EF93FF9390917801809179019817E6
:1001000061F0E0917901EF5FEF70E0937901F0E049
:10011000E859FF4F80818CB907C0559881E090E085
:100120009093650080936400FF91EF919F918F9170
:100130000F900FBE0F901F9018959C0110927801A0
:100140001092790110927A0110927B0197FF03C0FF
:1001500082E08BB93F7730BD29B988E98AB986E852
:1001600080BD089590917A0180917B01981719F4D0
:1001700020E031E011C0E0917B01EF5FE0937B0173
:10018000F0E0E858FF4F308120917C01922F80E011
:10019000AC01430F511D9A01C9010895282F909178
:1001A00078019F5F9F70809179019817E1F3E92FA3
:1001B000F0E0E859FF4F208390937801109265009A
:1001C00010926400559A0895CF93DF93EC0103C019
:1001D00021960E94CE0088818823D1F7DF91CF91AC
:1001E0000895949A959A929A9398979A96980895C2
:1001F000949A959A9298939A9798969A0895949A21
:10020000959A9298939A979A96980895949A959A0F
:10021000929A93989798969A089594989598929808
:1002200093989798969808958A9A8B9A8C9A8D9A13
:100230008E9A8F9A089596B1976196B987B93E9A2A
:10024000379A369A349BFECF349A24B130E045B1C8
:10025000942F80E0282B392BC9010895EF92FF924B
:100260000F931F93CF93DF938FE084BB87E090E0E1
:100270000E949D0078940E941401A09AA19AA29ACB
:10028000A39AA49AAC9A80E7E82E81E0F82E80E049
:1002900090E00E941B018C0181E090E00E941B0114
:1002A000EC0182E090E00E941B0180E690E00E9459
:1002B000E40080E690E00E94E400C801845F914081
:1002C000C39790F4CE0186529240C39768F483E7B7
:1002D0000E94CE0088E893E1F7013197F1F701978A
:1002E000D9F7A89AA99A60C0C80188509240C397CC
:1002F00088F4CE018A5D9240C39760F486E60E943E
:10030000CE0088E893E1F7013197F1F70197D9F72B
:10031000A89815C0C8018E5F9140C39790F4CE0194
:10032000885B9140C39768F482E60E94CE0088E81B
:1003300093E1F7013197F1F70197D9F7A89AA998B6
:1003400016C0C8018A549140C39798F4CE018652D2
:100350009240C39770F482E70E94CE0088E893E150
:10036000F7013197F1F70197D9F7A898A99AAA98B8
:1003700017C00A58124003331105A0F4CC51D240E3
:10038000C536D10578F48CE60E94CE0088E893E16A
:10039000F7013197F1F70197D9F7A898A998AA9A88
:1003A000AB9875CFA898A998AA9AAB9A70CFF894F1
:0203B000FFCF7D
:0403B2000A0D000030
:00000001FF
