:100000000C942A000C9434000C9434000C943400AA
:100010000C9434000C9434000C9434000C94340090
:100020000C9434000C9434000C9434000C94340080
:100030000C9434000C9434000C9434000C94340070
:100040000C9434000C9434000C9434000C94340060
:100050000C94340011241FBECFE5D4E0DEBFCDBF29
:100060000E9436000C9450000C940000A09A71E09D
:1000700064E050E849E02CE030E085B3872785BB99
:1000800080E090E05FBD4EBD3DBD2CBD08B602FED8
:10009000FDCF68BF1EBC0196833E910599F7EDCF59
:0400A000F894FFCF02
:00000001FF
